{
    "contractName": "Appointment",
    "abi": [
        {
            "anonymous": false,
            "inputs": [
                {
                    "indexed": true,
                    "internalType": "address",
                    "name": "patient",
                    "type": "address"
                },
                {
                    "indexed": true,
                    "internalType": "address",
                    "name": "doctor",
                    "type": "address"
                },
                {
                    "indexed": true,
                    "internalType": "uint256",
                    "name": "date",
                    "type": "uint256"
                },
                {
                    "indexed": false,
                    "internalType": "string",
                    "name": "details",
                    "type": "string"
                }
            ],
            "name": "AppointmentCreated",
            "type": "event"
        },
        {
            "inputs": [
                {
                    "internalType": "uint256",
                    "name": "",
                    "type": "uint256"
                }
            ],
            "name": "appointments",
            "outputs": [
                {
                    "internalType": "address",
                    "name": "patient",
                    "type": "address"
                },
                {
                    "internalType": "address",
                    "name": "doctor",
                    "type": "address"
                },
                {
                    "internalType": "uint256",
                    "name": "date",
                    "type": "uint256"
                },
                {
                    "internalType": "string",
                    "name": "details",
                    "type": "string"
                }
            ],
            "stateMutability": "view",
            "type": "function"
        },
        {
            "inputs": [
                {
                    "internalType": "address",
                    "name": "_patient",
                    "type": "address"
                },
                {
                    "internalType": "address",
                    "name": "_doctor",
                    "type": "address"
                },
                {
                    "internalType": "uint256",
                    "name": "_date",
                    "type": "uint256"
                },
                {
                    "internalType": "string",
                    "name": "_details",
                    "type": "string"
                }
            ],
            "name": "createAppointment",
            "outputs": [],
            "stateMutability": "nonpayable",
            "type": "function"
        },
        {
            "inputs": [],
            "name": "getAppointmentsCount",
            "outputs": [
                {
                    "internalType": "uint256",
                    "name": "",
                    "type": "uint256"
                }
            ],
            "stateMutability": "view",
            "type": "function"
        }
    ],
    "bytecode": "608060405234801561001057600080fd5b5061060c806100206000396000f3fe608060405234801561001057600080fd5b50600436106100415760003560e01c806312dc901314610046578063411b4ace1461007257806365286a8514610083575b600080fd5b6100596100543660046102c9565b610098565b6040516100699493929190610328565b60405180910390f35b600054604051908152602001610069565b610096610091366004610397565b61016c565b005b600081815481106100a857600080fd5b600091825260209091206004909102018054600182015460028301546003840180546001600160a01b0394851696509290931693909290916100e990610473565b80601f016020809104026020016040519081016040528092919081815260200182805461011590610473565b80156101625780601f1061013757610100808354040283529160200191610162565b820191906000526020600020905b81548152906001019060200180831161014557829003601f168201915b5050505050905084565b604080516080810182526001600160a01b038087168252858116602083019081529282018581526060830185815260008054600181018255908052845160049091027f290decd9548b62a8d60345a988386fc84ba6bc95484008f6362f93160ef3e563810180549286166001600160a01b031993841617815596517f290decd9548b62a8d60345a988386fc84ba6bc95484008f6362f93160ef3e564820180549190961692169190911790935590517f290decd9548b62a8d60345a988386fc84ba6bc95484008f6362f93160ef3e565830155519192839290917f290decd9548b62a8d60345a988386fc84ba6bc95484008f6362f93160ef3e566019061027390826104fc565b50505082846001600160a01b0316866001600160a01b03167fa1018c988b29efcd7dfe32f1e9a1ed96f2d1ec407dd560e7f711b2082daba5d4856040516102ba91906105bc565b60405180910390a45050505050565b6000602082840312156102db57600080fd5b5035919050565b6000815180845260005b81811015610308576020818501810151868301820152016102ec565b506000602082860101526020601f19601f83011685010191505092915050565b6001600160a01b038581168252841660208201526040810183905260806060820181905260009061035b908301846102e2565b9695505050505050565b80356001600160a01b038116811461037c57600080fd5b919050565b634e487b7160e01b600052604160045260246000fd5b600080600080608085870312156103ad57600080fd5b6103b685610365565b93506103c460208601610365565b925060408501359150606085013567ffffffffffffffff808211156103e857600080fd5b818701915087601f8301126103fc57600080fd5b81358181111561040e5761040e610381565b604051601f8201601f19908116603f0116810190838211818310171561043657610436610381565b816040528281528a602084870101111561044f57600080fd5b82602086016020830137600060208483010152809550505050505092959194509250565b600181811c9082168061048757607f821691505b6020821081036104a757634e487b7160e01b600052602260045260246000fd5b50919050565b601f8211156104f757600081815260208120601f850160051c810160208610156104d45750805b601f850160051c820191505b818110156104f3578281556001016104e0565b5050505b505050565b815167ffffffffffffffff81111561051657610516610381565b61052a816105248454610473565b846104ad565b602080601f83116001811461055f57600084156105475750858301515b600019600386901b1c1916600185901b1785556104f3565b600085815260208120601f198616915b8281101561058e5788860151825594840194600190910190840161056f565b50858210156105ac5787850151600019600388901b60f8161c191681555b5050505050600190811b01905550565b6020815260006105cf60208301846102e2565b939250505056fea2646970667358221220d01decdbf266f856cea8911b174bc8a1d09490b1105fa590f63f0b999b531e6f64736f6c63430008130033",
    "sourcePath": "c:/Users/dueli/OneDrive/Desktop/ethglobal/contracts/Appointment.sol",
    "compiler": {
        "name": "solc",
        "version": "0.8.19+commit.7dd6d404"
    },
    "functionHashes": {
        "appointments(uint256)": "12dc9013",
        "createAppointment(address,address,uint256,string)": "65286a85",
        "getAppointmentsCount()": "411b4ace"
    },
    "gasEstimates": {
        "creation": {
            "codeDepositCost": "309600",
            "executionCost": "349",
            "totalCost": "309949"
        },
        "external": {
            "appointments(uint256)": "infinite",
            "createAppointment(address,address,uint256,string)": "infinite",
            "getAppointmentsCount()": "2280"
        }
    }
}